{
  "contractName": "Crowdfy",
  "abi": [
    {
      "anonymous": false,
      "inputs": [
        {
          "indexed": false,
          "internalType": "address",
          "name": "_beneficiaryAddress",
          "type": "address"
        },
        {
          "indexed": false,
          "internalType": "uint256",
          "name": "_amount",
          "type": "uint256"
        }
      ],
      "name": "BeneficiaryWitdraws",
      "type": "event"
    },
    {
      "anonymous": false,
      "inputs": [
        {
          "indexed": false,
          "internalType": "uint8",
          "name": "_state",
          "type": "uint8"
        },
        {
          "indexed": false,
          "internalType": "uint256",
          "name": "_timeOfFinalization",
          "type": "uint256"
        },
        {
          "indexed": false,
          "internalType": "uint256",
          "name": "_amountRised",
          "type": "uint256"
        }
      ],
      "name": "CampaignFinished",
      "type": "event"
    },
    {
      "anonymous": false,
      "inputs": [
        {
          "components": [
            {
              "internalType": "address",
              "name": "sender",
              "type": "address"
            },
            {
              "internalType": "uint256",
              "name": "value",
              "type": "uint256"
            },
            {
              "internalType": "uint256",
              "name": "time",
              "type": "uint256"
            },
            {
              "internalType": "uint256",
              "name": "numberOfContributions",
              "type": "uint256"
            }
          ],
          "indexed": false,
          "internalType": "struct Crowdfy.Contribution",
          "name": "_contributionMade",
          "type": "tuple"
        }
      ],
      "name": "ContributionMade",
      "type": "event"
    },
    {
      "anonymous": false,
      "inputs": [
        {
          "indexed": false,
          "internalType": "address",
          "name": "_payoutDestination",
          "type": "address"
        },
        {
          "indexed": false,
          "internalType": "uint256",
          "name": "_payoutAmount",
          "type": "uint256"
        }
      ],
      "name": "ContributorRefounded",
      "type": "event"
    },
    {
      "anonymous": false,
      "inputs": [
        {
          "indexed": false,
          "internalType": "string",
          "name": "",
          "type": "string"
        }
      ],
      "name": "MinimumReached",
      "type": "event"
    },
    {
      "anonymous": false,
      "inputs": [
        {
          "indexed": false,
          "internalType": "uint256",
          "name": "_earningMade",
          "type": "uint256"
        }
      ],
      "name": "NewEarning",
      "type": "event"
    },
    {
      "inputs": [],
      "name": "amountToWithdraw",
      "outputs": [
        {
          "internalType": "uint256",
          "name": "",
          "type": "uint256"
        }
      ],
      "stateMutability": "view",
      "type": "function"
    },
    {
      "inputs": [
        {
          "internalType": "uint256",
          "name": "",
          "type": "uint256"
        }
      ],
      "name": "contributions",
      "outputs": [
        {
          "internalType": "address",
          "name": "sender",
          "type": "address"
        },
        {
          "internalType": "uint256",
          "name": "value",
          "type": "uint256"
        },
        {
          "internalType": "uint256",
          "name": "time",
          "type": "uint256"
        },
        {
          "internalType": "uint256",
          "name": "numberOfContributions",
          "type": "uint256"
        }
      ],
      "stateMutability": "view",
      "type": "function"
    },
    {
      "inputs": [
        {
          "internalType": "address",
          "name": "",
          "type": "address"
        }
      ],
      "name": "contributionsByPeople",
      "outputs": [
        {
          "internalType": "address",
          "name": "sender",
          "type": "address"
        },
        {
          "internalType": "uint256",
          "name": "value",
          "type": "uint256"
        },
        {
          "internalType": "uint256",
          "name": "time",
          "type": "uint256"
        },
        {
          "internalType": "uint256",
          "name": "numberOfContributions",
          "type": "uint256"
        }
      ],
      "stateMutability": "view",
      "type": "function"
    },
    {
      "inputs": [],
      "name": "theCampaign",
      "outputs": [
        {
          "internalType": "string",
          "name": "campaignName",
          "type": "string"
        },
        {
          "internalType": "uint256",
          "name": "fundingGoal",
          "type": "uint256"
        },
        {
          "internalType": "uint256",
          "name": "fundingCap",
          "type": "uint256"
        },
        {
          "internalType": "uint256",
          "name": "deadline",
          "type": "uint256"
        },
        {
          "internalType": "address",
          "name": "beneficiary",
          "type": "address"
        },
        {
          "internalType": "address",
          "name": "owner",
          "type": "address"
        },
        {
          "internalType": "uint256",
          "name": "created",
          "type": "uint256"
        },
        {
          "internalType": "enum Crowdfy.State",
          "name": "state",
          "type": "uint8"
        },
        {
          "internalType": "uint256",
          "name": "amountRised",
          "type": "uint256"
        }
      ],
      "stateMutability": "view",
      "type": "function"
    },
    {
      "inputs": [],
      "name": "withdrawn",
      "outputs": [
        {
          "internalType": "uint256",
          "name": "",
          "type": "uint256"
        }
      ],
      "stateMutability": "view",
      "type": "function"
    },
    {
      "inputs": [],
      "name": "contribute",
      "outputs": [],
      "stateMutability": "payable",
      "type": "function"
    },
    {
      "inputs": [],
      "name": "withdraw",
      "outputs": [],
      "stateMutability": "payable",
      "type": "function"
    },
    {
      "inputs": [],
      "name": "claimFounds",
      "outputs": [],
      "stateMutability": "payable",
      "type": "function"
    },
    {
      "inputs": [
        {
          "internalType": "string",
          "name": "_campaignName",
          "type": "string"
        },
        {
          "internalType": "uint256",
          "name": "_fundingGoal",
          "type": "uint256"
        },
        {
          "internalType": "uint256",
          "name": "_deadline",
          "type": "uint256"
        },
        {
          "internalType": "uint256",
          "name": "_fundingCap",
          "type": "uint256"
        },
        {
          "internalType": "address",
          "name": "_beneficiaryAddress",
          "type": "address"
        },
        {
          "internalType": "address",
          "name": "_campaignCreator",
          "type": "address"
        },
        {
          "internalType": "address",
          "name": "_protocolOwner",
          "type": "address"
        }
      ],
      "name": "initializeCampaign",
      "outputs": [],
      "stateMutability": "nonpayable",
      "type": "function"
    }
  ],
  "bytecode": "0x608060405260008060006101000a81548160ff021916908315150217905550600060045534801561002f57600080fd5b506129b68061003f6000396000f3fe6080604052600436106100865760003560e01c806345c53b511161005957806345c53b51146101295780639e9fa53514610169578063c383759e1461019c578063c80ec522146101a6578063d7bb99ba146101d157610086565b80631cee07001461008b578063269fa128146100cb5780633ccfd60b146100f65780633d789e6714610100575b600080fd5b34801561009757600080fd5b506100b260048036038101906100ad9190611f39565b6101db565b6040516100c29493929190612368565b60405180910390f35b3480156100d757600080fd5b506100e061023b565b6040516100ed919061255c565b60405180910390f35b6100fe610241565b005b34801561010c57600080fd5b5061012760048036038101906101229190611e7f565b610757565b005b34801561013557600080fd5b50610150600480360381019061014b9190611e56565b610a73565b6040516101609493929190612368565b60405180910390f35b34801561017557600080fd5b5061017e610ac3565b604051610193999897969594939291906123ad565b60405180910390f35b6101a4610bd4565b005b3480156101b257600080fd5b506101bb611107565b6040516101c8919061255c565b60405180910390f35b6101d961110d565b005b600181815481106101eb57600080fd5b90600052602060002090600402016000915090508060000160009054906101000a900473ffffffffffffffffffffffffffffffffffffffff16908060010154908060020154908060030154905084565b60035481565b604051806040016040528060026004811115610286577f4e487b7100000000000000000000000000000000000000000000000000000000600052602160045260246000fd5b60048111156102be577f4e487b7100000000000000000000000000000000000000000000000000000000600052602160045260246000fd5b81526020016004808111156102fc577f4e487b7100000000000000000000000000000000000000000000000000000000600052602160045260246000fd5b6004811115610334577f4e487b7100000000000000000000000000000000000000000000000000000000600052602160045260246000fd5b81525080600060028110610371577f4e487b7100000000000000000000000000000000000000000000000000000000600052603260045260246000fd5b602002015160048111156103ae577f4e487b7100000000000000000000000000000000000000000000000000000000600052602160045260246000fd5b60ff166103b9611a61565b60ff16148061044a5750806001600281106103fd577f4e487b7100000000000000000000000000000000000000000000000000000000600052603260045260246000fd5b6020020151600481111561043a577f4e487b7100000000000000000000000000000000000000000000000000000000600052602160045260246000fd5b60ff16610445611a61565b60ff16145b610489576040517f08c379a000000000000000000000000000000000000000000000000000000000815260040161048090612521565b60405180910390fd5b3373ffffffffffffffffffffffffffffffffffffffff16600560040160009054906101000a900473ffffffffffffffffffffffffffffffffffffffff1673ffffffffffffffffffffffffffffffffffffffff161461051c576040517f08c379a000000000000000000000000000000000000000000000000000000000815260040161051390612501565b60405180910390fd5b6000600454600354106105415760045460035461053991906126b6565b905080610555565b60035460045461055191906126b6565b9050805b506003546004600082825461056a91906125d5565b9250508190555060006003819055506000600560040160009054906101000a900473ffffffffffffffffffffffffffffffffffffffff1673ffffffffffffffffffffffffffffffffffffffff16826040516105c49061232a565b60006040518083038185875af1925050503d8060008114610601576040519150601f19603f3d011682016040523d82523d6000602084013e610606565b606091505b505090508061064a576040517f08c379a0000000000000000000000000000000000000000000000000000000008152600401610641906124a1565b60405180910390fd5b7f69c28ed920602b9cdf6ed91326f80f2938e8a2abea60f62437bd2497c163bebb600560040160009054906101000a900473ffffffffffffffffffffffffffffffffffffffff16836040516106a092919061233f565b60405180910390a160056002015460045410610752576003600560070160006101000a81548160ff02191690836004811115610705577f4e487b7100000000000000000000000000000000000000000000000000000000600052602160045260246000fd5b02179055507fd19a4f1dc67e9517b0aae3c5a223a30b0e7acadef01a15441737504115d0768f610733611a61565b4260056008015460405161074993929190612577565b60405180910390a15b505050565b428511610799576040517f08c379a000000000000000000000000000000000000000000000000000000000815260040161079090612461565b60405180910390fd5b60008054906101000a900460ff16156107db577f4e487b7100000000000000000000000000000000000000000000000000000000600052600160045260246000fd5b60405180610120016040528089898080601f016020809104026020016040519081016040528093929190818152602001838380828437600081840152601f19601f82011690508083019250505050505050815260200161083a88611cc2565b815260200161084886611cc2565b81526020018681526020018473ffffffffffffffffffffffffffffffffffffffff1681526020018373ffffffffffffffffffffffffffffffffffffffff168152602001428152602001600060048111156108cb577f4e487b7100000000000000000000000000000000000000000000000000000000600052602160045260246000fd5b81526020016000815250600560008201518160000190805190602001906108f3929190611d01565b5060208201518160010155604082015181600201556060820151816003015560808201518160040160006101000a81548173ffffffffffffffffffffffffffffffffffffffff021916908373ffffffffffffffffffffffffffffffffffffffff16021790555060a08201518160050160006101000a81548173ffffffffffffffffffffffffffffffffffffffff021916908373ffffffffffffffffffffffffffffffffffffffff16021790555060c0820151816006015560e08201518160070160006101000a81548160ff021916908360048111156109fb577f4e487b7100000000000000000000000000000000000000000000000000000000600052602160045260246000fd5b0217905550610100820151816008015590505080600060016101000a81548173ffffffffffffffffffffffffffffffffffffffff021916908373ffffffffffffffffffffffffffffffffffffffff16021790555060016000806101000a81548160ff0219169083151502179055505050505050505050565b60026020528060005260406000206000915090508060000160009054906101000a900473ffffffffffffffffffffffffffffffffffffffff16908060010154908060020154908060030154905084565b6005806000018054610ad4906127b5565b80601f0160208091040260200160405190810160405280929190818152602001828054610b00906127b5565b8015610b4d5780601f10610b2257610100808354040283529160200191610b4d565b820191906000526020600020905b815481529060010190602001808311610b3057829003601f168201915b5050505050908060010154908060020154908060030154908060040160009054906101000a900473ffffffffffffffffffffffffffffffffffffffff16908060050160009054906101000a900473ffffffffffffffffffffffffffffffffffffffff16908060060154908060070160009054906101000a900460ff16908060080154905089565b604051806040016040528060016004811115610c19577f4e487b7100000000000000000000000000000000000000000000000000000000600052602160045260246000fd5b6004811115610c51577f4e487b7100000000000000000000000000000000000000000000000000000000600052602160045260246000fd5b815260200160016004811115610c90577f4e487b7100000000000000000000000000000000000000000000000000000000600052602160045260246000fd5b6004811115610cc8577f4e487b7100000000000000000000000000000000000000000000000000000000600052602160045260246000fd5b81525080600060028110610d05577f4e487b7100000000000000000000000000000000000000000000000000000000600052603260045260246000fd5b60200201516004811115610d42577f4e487b7100000000000000000000000000000000000000000000000000000000600052602160045260246000fd5b60ff16610d4d611a61565b60ff161480610dde575080600160028110610d91577f4e487b7100000000000000000000000000000000000000000000000000000000600052603260045260246000fd5b60200201516004811115610dce577f4e487b7100000000000000000000000000000000000000000000000000000000600052602160045260246000fd5b60ff16610dd9611a61565b60ff16145b610e1d576040517f08c379a0000000000000000000000000000000000000000000000000000000008152600401610e1490612521565b60405180910390fd5b600f60003373ffffffffffffffffffffffffffffffffffffffff1673ffffffffffffffffffffffffffffffffffffffff16815260200190815260200160002060009054906101000a900460ff16610ea9576040517f08c379a0000000000000000000000000000000000000000000000000000000008152600401610ea0906124c1565b60405180910390fd5b600e60003373ffffffffffffffffffffffffffffffffffffffff1673ffffffffffffffffffffffffffffffffffffffff16815260200190815260200160002060009054906101000a900460ff1615610f36576040517f08c379a0000000000000000000000000000000000000000000000000000000008152600401610f2d90612441565b60405180910390fd5b6000600260003373ffffffffffffffffffffffffffffffffffffffff1673ffffffffffffffffffffffffffffffffffffffff1681526020019081526020016000206001015490506000600260003373ffffffffffffffffffffffffffffffffffffffff1673ffffffffffffffffffffffffffffffffffffffff1681526020019081526020016000206001018190555060003373ffffffffffffffffffffffffffffffffffffffff1682604051610feb9061232a565b60006040518083038185875af1925050503d8060008114611028576040519150601f19603f3d011682016040523d82523d6000602084013e61102d565b606091505b5050905080611071576040517f08c379a0000000000000000000000000000000000000000000000000000000008152600401611068906124a1565b60405180910390fd5b6001600e60003373ffffffffffffffffffffffffffffffffffffffff1673ffffffffffffffffffffffffffffffffffffffff16815260200190815260200160002060006101000a81548160ff0219169083151502179055507f0d8155b71a49cdcbf2ff949cd1ffc6b12f5ef6680b329f75c3b1e9c00b1deadc33836040516110fa92919061233f565b60405180910390a1505050565b60045481565b604051806040016040528060006004811115611152577f4e487b7100000000000000000000000000000000000000000000000000000000600052602160045260246000fd5b600481111561118a577f4e487b7100000000000000000000000000000000000000000000000000000000600052602160045260246000fd5b81526020016004808111156111c8577f4e487b7100000000000000000000000000000000000000000000000000000000600052602160045260246000fd5b6004811115611200577f4e487b7100000000000000000000000000000000000000000000000000000000600052602160045260246000fd5b8152508060006002811061123d577f4e487b7100000000000000000000000000000000000000000000000000000000600052603260045260246000fd5b6020020151600481111561127a577f4e487b7100000000000000000000000000000000000000000000000000000000600052602160045260246000fd5b60ff16611285611a61565b60ff1614806113165750806001600281106112c9577f4e487b7100000000000000000000000000000000000000000000000000000000600052603260045260246000fd5b60200201516004811115611306577f4e487b7100000000000000000000000000000000000000000000000000000000600052602160045260246000fd5b60ff16611311611a61565b60ff16145b611355576040517f08c379a000000000000000000000000000000000000000000000000000000000815260040161134c90612521565b60405180910390fd5b60003411611398576040517f08c379a000000000000000000000000000000000000000000000000000000000815260040161138f90612481565b60405180910390fd5b60006113a334611cdf565b9050600f60003373ffffffffffffffffffffffffffffffffffffffff1673ffffffffffffffffffffffffffffffffffffffff16815260200190815260200160002060009054906101000a900460ff1615611533576000600260003373ffffffffffffffffffffffffffffffffffffffff1673ffffffffffffffffffffffffffffffffffffffff1681526020019081526020016000209050813461144691906126b6565b81600101600082825461145991906125d5565b925050819055508060030160008154809291906114759061281b565b919050555060018190806001815401808255809150506001900390600052602060002090600402016000909190919091506000820160009054906101000a900473ffffffffffffffffffffffffffffffffffffffff168160000160006101000a81548173ffffffffffffffffffffffffffffffffffffffff021916908373ffffffffffffffffffffffffffffffffffffffff160217905550600182015481600101556002820154816002015560038201548160030155505050611715565b61153b611d87565b60405180608001604052803373ffffffffffffffffffffffffffffffffffffffff168152602001833461156e91906126b6565b81526020014281526020016001815250905080600260003373ffffffffffffffffffffffffffffffffffffffff1673ffffffffffffffffffffffffffffffffffffffff16815260200190815260200160002060008201518160000160006101000a81548173ffffffffffffffffffffffffffffffffffffffff021916908373ffffffffffffffffffffffffffffffffffffffff160217905550602082015181600101556040820151816002015560608201518160030155905050600181908060018154018082558091505060019003906000526020600020906004020160009091909190915060008201518160000160006101000a81548173ffffffffffffffffffffffffffffffffffffffff021916908373ffffffffffffffffffffffffffffffffffffffff16021790555060208201518160010155604082015181600201556060820151816003015550506001600f60003373ffffffffffffffffffffffffffffffffffffffff1673ffffffffffffffffffffffffffffffffffffffff16815260200190815260200160002060006101000a81548160ff021916908315150217905550505b803461172191906126b6565b6005600801600082825461173591906125d5565b92505081905550803461174891906126b6565b6003600082825461175991906125d5565b9250508190555060008060019054906101000a900473ffffffffffffffffffffffffffffffffffffffff1673ffffffffffffffffffffffffffffffffffffffff16826040516117a79061232a565b60006040518083038185875af1925050503d80600081146117e4576040519150601f19603f3d011682016040523d82523d6000602084013e6117e9565b606091505b505090508061182d576040517f08c379a0000000000000000000000000000000000000000000000000000000008152600401611824906124a1565b60405180910390fd5b7fa16998de83819f5ca2c042721f072a56d937c091116a4f7ae5d13bd9cd134df18260405161185c919061255c565b60405180910390a17fa58938784a8b5e957cd3d5985f480e22369c83454366cf45c27a984255189cf0600260003373ffffffffffffffffffffffffffffffffffffffff1673ffffffffffffffffffffffffffffffffffffffff1681526020019081526020016000206040516118d19190612541565b60405180910390a1600560010154600560080154101580156118fc5750600560020154600560080154105b801561191b5750426224ea0060056003015461191891906125d5565b10155b156119ae576004600560070160006101000a81548160ff0219169083600481111561196f577f4e487b7100000000000000000000000000000000000000000000000000000000600052602160045260246000fd5b02179055507fad82a6bfb97f4201aa3ae3006c4fb2ac920cd47a8c5765a5fd9dc34c5b4fb07e6040516119a1906124e1565b60405180910390a1611a5c565b600560020154600560080154101580156119ce5750600560020154600454105b80611a015750426224ea006005600301546119e991906125d5565b108015611a00575060056001015460056008015410155b5b15611a5b576002600560070160006101000a81548160ff02191690836004811115611a55577f4e487b7100000000000000000000000000000000000000000000000000000000600052602160045260246000fd5b02179055505b5b505050565b600042600560030154118015611a805750600560010154600560080154105b8015611a8e57506000600454145b15611ad45760006004811115611acd577f4e487b7100000000000000000000000000000000000000000000000000000000600052602160045260246000fd5b9050611cbf565b60056001015460056008015410158015611af75750600560020154600560080154105b8015611b165750426224ea00600560030154611b1391906125d5565b10155b15611b5b57600480811115611b54577f4e487b7100000000000000000000000000000000000000000000000000000000600052602160045260246000fd5b9050611cbf565b60056002015460056008015410158015611b7b5750600560020154600454105b80611bae5750426224ea00600560030154611b9691906125d5565b108015611bad575060056001015460056008015410155b5b15611bf45760026004811115611bed577f4e487b7100000000000000000000000000000000000000000000000000000000600052602160045260246000fd5b9050611cbf565b60056002015460056008015410158015611c15575060056002015460045410155b15611c5b5760036004811115611c54577f4e487b7100000000000000000000000000000000000000000000000000000000600052602160045260246000fd5b9050611cbf565b42600560030154108015611c785750600560010154600560080154105b15611cbe5760016004811115611cb7577f4e487b7100000000000000000000000000000000000000000000000000000000600052602160045260246000fd5b9050611cbf565b5b90565b6000670de0b6b3a764000082611cd8919061265c565b9050919050565b60006064600183611cf0919061265c565b611cfa919061262b565b9050919050565b828054611d0d906127b5565b90600052602060002090601f016020900481019282611d2f5760008555611d76565b82601f10611d4857805160ff1916838001178555611d76565b82800160010185558215611d76579182015b82811115611d75578251825591602001919060010190611d5a565b5b509050611d839190611dc5565b5090565b6040518060800160405280600073ffffffffffffffffffffffffffffffffffffffff1681526020016000815260200160008152602001600081525090565b5b80821115611dde576000816000905550600101611dc6565b5090565b600081359050611df181612952565b92915050565b60008083601f840112611e0957600080fd5b8235905067ffffffffffffffff811115611e2257600080fd5b602083019150836001820283011115611e3a57600080fd5b9250929050565b600081359050611e5081612969565b92915050565b600060208284031215611e6857600080fd5b6000611e7684828501611de2565b91505092915050565b60008060008060008060008060e0898b031215611e9b57600080fd5b600089013567ffffffffffffffff811115611eb557600080fd5b611ec18b828c01611df7565b98509850506020611ed48b828c01611e41565b9650506040611ee58b828c01611e41565b9550506060611ef68b828c01611e41565b9450506080611f078b828c01611de2565b93505060a0611f188b828c01611de2565b92505060c0611f298b828c01611de2565b9150509295985092959890939650565b600060208284031215611f4b57600080fd5b6000611f5984828501611e41565b91505092915050565b611f6b81612714565b82525050565b611f7a81612714565b82525050565b611f8981612770565b82525050565b6000611f9a826125ae565b611fa481856125c4565b9350611fb4818560208601612782565b611fbd81612920565b840191505092915050565b6000611fd5601d836125c4565b91507f596f7520616c726561647920686173206265656e20726566756e6465640000006000830152602082019050919050565b60006120156033836125c4565b91507f596f75722064756564617465206861766520746f206265206d616a6f7220746860008301527f616e207468652063757272656e742074696d65000000000000000000000000006020830152604082019050919050565b600061207b6014836125c4565b91507f507574206120636f727265637420616d6f756e740000000000000000000000006000830152602082019050919050565b60006120bb6014836125c4565b91507f4661696c656420746f2073656e642045746865720000000000000000000000006000830152602082019050919050565b60006120fb6015836125c4565b91507f596f75206469646e7420636f6e747269627574656400000000000000000000006000830152602082019050919050565b600061213b6022836125c4565b91507f546865206d696e696d756d2076616c756520686173206265656e20726561636860008301527f65640000000000000000000000000000000000000000000000000000000000006020830152604082019050919050565b60006121a1602b836125c4565b91507f4f6e6c79207468652062656e65666963696172792063616e2063616c6c20746860008301527f69732066756e6374696f6e0000000000000000000000000000000000000000006020830152604082019050919050565b60006122076000836125b9565b9150600082019050919050565b6000612221602f836125c4565b91507f4e6f74205065726d6974656420647572696e672074686973207374617465206f60008301527f66207468652063616d706169676e2e00000000000000000000000000000000006020830152604082019050919050565b60808201600080830154905061228f816127e7565b61229c6000860182611f62565b50600183015490506122ad81612801565b6122ba60208601826122fd565b50600283015490506122cb81612801565b6122d860408601826122fd565b50600383015490506122e981612801565b6122f660608601826122fd565b5050505050565b61230681612759565b82525050565b61231581612759565b82525050565b61232481612763565b82525050565b6000612335826121fa565b9150819050919050565b60006040820190506123546000830185611f71565b612361602083018461230c565b9392505050565b600060808201905061237d6000830187611f71565b61238a602083018661230c565b612397604083018561230c565b6123a4606083018461230c565b95945050505050565b60006101208201905081810360008301526123c8818c611f8f565b90506123d7602083018b61230c565b6123e4604083018a61230c565b6123f1606083018961230c565b6123fe6080830188611f71565b61240b60a0830187611f71565b61241860c083018661230c565b61242560e0830185611f80565b61243361010083018461230c565b9a9950505050505050505050565b6000602082019050818103600083015261245a81611fc8565b9050919050565b6000602082019050818103600083015261247a81612008565b9050919050565b6000602082019050818103600083015261249a8161206e565b9050919050565b600060208201905081810360008301526124ba816120ae565b9050919050565b600060208201905081810360008301526124da816120ee565b9050919050565b600060208201905081810360008301526124fa8161212e565b9050919050565b6000602082019050818103600083015261251a81612194565b9050919050565b6000602082019050818103600083015261253a81612214565b9050919050565b6000608082019050612556600083018461227a565b92915050565b6000602082019050612571600083018461230c565b92915050565b600060608201905061258c600083018661231b565b612599602083018561230c565b6125a6604083018461230c565b949350505050565b600081519050919050565b600081905092915050565b600082825260208201905092915050565b60006125e082612759565b91506125eb83612759565b9250827fffffffffffffffffffffffffffffffffffffffffffffffffffffffffffffffff038211156126205761261f612864565b5b828201905092915050565b600061263682612759565b915061264183612759565b92508261265157612650612893565b5b828204905092915050565b600061266782612759565b915061267283612759565b9250817fffffffffffffffffffffffffffffffffffffffffffffffffffffffffffffffff04831182151516156126ab576126aa612864565b5b828202905092915050565b60006126c182612759565b91506126cc83612759565b9250828210156126df576126de612864565b5b828203905092915050565b600073ffffffffffffffffffffffffffffffffffffffff82169050919050565b6000819050919050565b600061271f82612739565b9050919050565b60008190506127348261293e565b919050565b600073ffffffffffffffffffffffffffffffffffffffff82169050919050565b6000819050919050565b600060ff82169050919050565b600061277b82612726565b9050919050565b60005b838110156127a0578082015181840152602081019050612785565b838111156127af576000848401525b50505050565b600060028204905060018216806127cd57607f821691505b602082108114156127e1576127e06128f1565b5b50919050565b60006127fa6127f583612931565b6126ea565b9050919050565b600061281461280f83612931565b61270a565b9050919050565b600061282682612759565b91507fffffffffffffffffffffffffffffffffffffffffffffffffffffffffffffffff82141561285957612858612864565b5b600182019050919050565b7f4e487b7100000000000000000000000000000000000000000000000000000000600052601160045260246000fd5b7f4e487b7100000000000000000000000000000000000000000000000000000000600052601260045260246000fd5b7f4e487b7100000000000000000000000000000000000000000000000000000000600052602160045260246000fd5b7f4e487b7100000000000000000000000000000000000000000000000000000000600052602260045260246000fd5b6000601f19601f8301169050919050565b60008160001c9050919050565b6005811061294f5761294e6128c2565b5b50565b61295b81612714565b811461296657600080fd5b50565b61297281612759565b811461297d57600080fd5b5056fea26469706673582212201c6fda8cb46824a1a21eb70ad3ee188a8ca1f6965e77661e255f79c27d8609be64736f6c63430008000033",
  "immutableReferences": {},
  "source": "//SPDX-License-Identifier: UNLICENSED;\r\npragma solidity 0.8.0;\r\n\r\nimport \"./CrowdfyI.sol\";\r\n\r\n///@title crowdfy crowdfunding contract\r\ncontract Crowdfy is CrowdfyI {\r\n    //** **************** ENUMS ********************** */\r\n\r\n    //The posible states of the campaign\r\n    enum State {\r\n        Ongoing,\r\n        Failed,\r\n        Succeded,\r\n        Finalized,\r\n        EarlySuccess\r\n    }\r\n\r\n    //** **************** EVENTS ********************** */\r\n\r\n    event ContributionMade(Contribution _contributionMade); // fire when a contribution is made\r\n    event MinimumReached(string); //fire when the campaign reached the minimum amoun to succced\r\n    event BeneficiaryWitdraws(\r\n        address _beneficiaryAddress,\r\n        uint256 _amount\r\n    ); //fire when the beneficiary withdraws found\r\n    //fire when the contributor recive the founds if the campaign fails\r\n    event ContributorRefounded(\r\n        address _payoutDestination,\r\n        uint256 _payoutAmount\r\n    );\r\n    event CampaignFinished(\r\n        uint8 _state, \r\n        uint256 _timeOfFinalization, \r\n        uint256 _amountRised\r\n    );\r\n    event NewEarning(uint256 _earningMade);\r\n\r\n    //** **************** STRUCTS ********************** */\r\n\r\n    //Campaigns dataStructure\r\n    struct Campaign {\r\n        string campaignName;\r\n        uint256 fundingGoal; //the minimum amount that the campaigns required\r\n        uint256 fundingCap; //the maximum amount that the campaigns required\r\n        uint256 deadline;\r\n        address beneficiary; //the beneficiary of the campaign\r\n        address owner; //the creator of the campaign\r\n        uint256 created; // the time when the campaign was created\r\n        State state; //the current state of the campaign\r\n        uint256 amountRised; //the total amount that the campaign has been collected\r\n    }\r\n\r\n    //Contribution datastructure\r\n    struct Contribution {\r\n        address sender;\r\n        uint256 value;\r\n        uint256 time;\r\n        uint256 numberOfContributions;\r\n    }\r\n\r\n    //** **************** STATE VARIABLES ********************** */\r\n    bool private isInitialized = false;\r\n    address private protocolOwner; //sets the owner of the protocol to make earnings\r\n\r\n    //all the contribution made\r\n    Contribution[] public contributions;\r\n    // contributions made by people\r\n    mapping(address => Contribution) public contributionsByPeople;\r\n\r\n    uint256 public amountToWithdraw; // the amount that the bneficiary is able to withdraw\r\n    uint256 public withdrawn = 0; // the current amount that the beneficiary has withdrawing\r\n    //the actual campaign\r\n    Campaign public theCampaign;\r\n\r\n    //keeps track if a contributor has already been refunded\r\n    mapping(address => bool) hasRefunded;\r\n    //keeps track if a contributor has already been contributed\r\n    mapping(address => bool) hasContributed;\r\n\r\n    //** **************** MODIFIERS ********************** */\r\n\r\n    modifier inState(State[2] memory _expectedState) {\r\n        require(\r\n            state() == uint8(_expectedState[0]) ||\r\n                state() == uint8(_expectedState[1]),\r\n            \"Not Permited during this state of the campaign.\"\r\n        );\r\n        _;\r\n    }\r\n\r\n    //** **************** FUNCTIONS CODE ********************** */\r\n\r\n    /**@notice allows users to contribute to the campaign, as the campaign is in the onoging state.\r\n     */\r\n\r\n    function contribute()\r\n        external\r\n        payable\r\n        override\r\n        inState([State.Ongoing, State.EarlySuccess])\r\n    {\r\n        require(msg.value > 0, \"Put a correct amount\");\r\n\r\n        uint256 earning = getPercentage(msg.value);\r\n\r\n        if (hasContributed[msg.sender]) {\r\n            Contribution storage theContribution = contributionsByPeople[\r\n                msg.sender\r\n            ];\r\n            theContribution.value += msg.value - earning;\r\n            theContribution.numberOfContributions++;\r\n            contributions.push(theContribution);\r\n        } else {\r\n            Contribution memory newContribution;\r\n            contributionsByPeople[msg.sender] = newContribution = Contribution({\r\n                sender: msg.sender,\r\n                value: msg.value - earning,\r\n                time: block.timestamp,\r\n                numberOfContributions: 1\r\n            });\r\n\r\n            contributions.push(newContribution);\r\n            hasContributed[msg.sender] = true;\r\n        }\r\n\r\n        theCampaign.amountRised += msg.value - earning;\r\n        amountToWithdraw += msg.value - earning;\r\n        //sends to the deployer of the protocol a earning of 1% for each contribution\r\n        (bool success, ) = payable(protocolOwner).call{value: earning}(\"\");\r\n        require(success, \"Failed to send Ether\");\r\n\r\n        emit NewEarning(earning);\r\n        emit ContributionMade(contributionsByPeople[msg.sender]);\r\n\r\n        if (theCampaign.amountRised >= theCampaign.fundingGoal && \r\n                theCampaign.amountRised < theCampaign.fundingCap &&\r\n                theCampaign.deadline + 4 weeks >= block.timestamp) {\r\n\r\n            theCampaign.state = State.EarlySuccess;\r\n            emit MinimumReached(\"The minimum value has been reached\");\r\n        }\r\n        else if (\r\n                (theCampaign.amountRised >= theCampaign.fundingCap && \r\n                withdrawn < theCampaign.fundingCap) ||\r\n                (theCampaign.deadline + 4 weeks < block.timestamp &&\r\n                theCampaign.amountRised >= theCampaign.fundingGoal)\r\n            ) \r\n            {\r\n                theCampaign.state = State.Succeded;\r\n            }\r\n    }\r\n\r\n\r\n    /**@notice allows beneficiary to withdraw the founds of the campaign if this was succeded\r\n\r\n    *@dev first stores the amount that the beneficiary is able to withdraw:\r\n            amountToWithdraw(the amount that the campaign has been collected) \r\n            - \r\n            withdrawn(the amount that the beneficiary has withdrawing. starts at 0)\r\n        this is store in \"toWithdraw\"\r\n\r\n        second, add that amount \"toWithdraw\" the the quantity that the beneficiary has already withdrawing \"withdrawn\"\r\n\r\n        third, substaract the amount that the beneficiary has withdrawn to the amount that the bneficiary is able to withdraw\r\n\r\n\r\n    */\r\n    function withdraw()\r\n        external\r\n        payable\r\n        override\r\n        inState([State.Succeded, State.EarlySuccess])\r\n    {\r\n        require(\r\n            theCampaign.beneficiary == msg.sender,\r\n            \"Only the beneficiary can call this function\"\r\n        );\r\n        uint256 toWithdraw;\r\n\r\n        // prevents errors for underflow\r\n        amountToWithdraw < withdrawn ? toWithdraw = withdrawn - amountToWithdraw : \r\n        toWithdraw = amountToWithdraw - withdrawn;\r\n\r\n        // WARNING: posible error due overflow prevent mechanism (but that would be is a lot of ether)\r\n        withdrawn += amountToWithdraw;\r\n\r\n        amountToWithdraw = 0;//prevents reentrancy\r\n\r\n        (bool success, ) = payable(theCampaign.beneficiary).call{\r\n            value: toWithdraw\r\n        }(\"\");\r\n        require(success, \"Failed to send Ether\");\r\n\r\n        emit BeneficiaryWitdraws(\r\n            theCampaign.beneficiary,\r\n            toWithdraw\r\n        );\r\n\r\n        //if the beneficiary has withdrawn an amount equal to the funding cap, finish the campaign\r\n        if (withdrawn >= theCampaign.fundingCap) {\r\n            theCampaign.state = State.Finalized;\r\n            emit CampaignFinished(\r\n                state(),\r\n                block.timestamp,\r\n                theCampaign.amountRised\r\n            );\r\n        }\r\n    }\r\n\r\n    /**@notice claim a refund if the campaign was failed and only if you are a contributor\r\n    @dev this follows the withdraw pattern to prevent reentrancy\r\n    */\r\n    function claimFounds()\r\n        external\r\n        payable\r\n        override\r\n        inState([State.Failed, State.Failed])\r\n    {\r\n        require(hasContributed[msg.sender], \"You didnt contributed\");\r\n        require(!hasRefunded[msg.sender], \"You already has been refunded\");\r\n        uint256 toWithdraw = contributionsByPeople[msg.sender].value;\r\n        contributionsByPeople[msg.sender].value = 0;\r\n        (bool success, ) = payable(msg.sender).call{value: toWithdraw}(\"\");\r\n        require(success, \"Failed to send Ether\");\r\n        hasRefunded[msg.sender] = true;\r\n        emit ContributorRefounded(msg.sender, toWithdraw);\r\n    }\r\n\r\n    /**@notice creates a new instance campaign\r\n        @dev use CREATE in the factory contract \r\n        REQUIREMENTS:\r\n            due date must be major than the current block time\r\n\r\n            campaign cannot be initialized from iniside or cannot be initialized more than once a particular campaign\r\n     */\r\n    function initializeCampaign(\r\n        string calldata _campaignName,\r\n        uint256 _fundingGoal,\r\n        uint256 _deadline,\r\n        uint256 _fundingCap,\r\n        address _beneficiaryAddress,\r\n        address _campaignCreator,\r\n        address _protocolOwner\r\n    ) external override {\r\n        require(\r\n            _deadline > block.timestamp,\r\n            \"Your duedate have to be major than the current time\"\r\n        );\r\n        assert(!isInitialized);\r\n\r\n        theCampaign = Campaign({\r\n            campaignName: _campaignName,\r\n            fundingGoal: etherToWei(_fundingGoal),\r\n            fundingCap: etherToWei(_fundingCap),\r\n            deadline: _deadline,\r\n            beneficiary: _beneficiaryAddress,\r\n            owner: _campaignCreator,\r\n            created: block.timestamp,\r\n            state: State.Ongoing,\r\n            amountRised: 0\r\n        });\r\n\r\n        protocolOwner = _protocolOwner;\r\n        isInitialized = true;\r\n    }\r\n\r\n    /**@notice evaluates the current state of the campaign, its used for the \"inState\" modifier\r\n    \r\n    @dev \r\n    */\r\n    function state() private view returns (uint8 _state) {\r\n        if (\r\n            theCampaign.deadline > block.timestamp &&\r\n            theCampaign.amountRised < theCampaign.fundingGoal &&\r\n            withdrawn == 0\r\n        ) {\r\n            return uint8(State.Ongoing);\r\n        } \r\n        else if (theCampaign.amountRised >= theCampaign.fundingGoal && \r\n                theCampaign.amountRised < theCampaign.fundingCap &&\r\n                theCampaign.deadline + 4 weeks >= block.timestamp) { \r\n                    return uint8(State.EarlySuccess);\r\n                \r\n        } \r\n        else if ((theCampaign.amountRised >= theCampaign.fundingCap && \r\n                withdrawn < theCampaign.fundingCap) ||\r\n                (theCampaign.deadline + 4 weeks < block.timestamp &&\r\n                theCampaign.amountRised >= theCampaign.fundingGoal)) {\r\n\r\n            return uint8(State.Succeded);\r\n        } \r\n        else if (theCampaign.amountRised >= theCampaign.fundingCap && \r\n        withdrawn >= theCampaign.fundingCap) {\r\n\r\n            return uint8(State.Finalized);\r\n        }\r\n        else if (\r\n            theCampaign.deadline < block.timestamp &&\r\n            theCampaign.amountRised < theCampaign.fundingGoal\r\n        ) {\r\n            return uint8(State.Failed);\r\n        }\r\n    }\r\n\r\n    /**@notice use to get a revenue of 1% for each contribution made */\r\n    function getPercentage(uint256 num) private pure returns (uint256) {\r\n        return (num * 1) / 100;\r\n    }\r\n\r\n    function etherToWei(uint256 _sumInEth) private pure returns (uint256) {\r\n        return _sumInEth * 1 ether;\r\n    }\r\n}\r\n",
  "sourcePath": "C:/Users/PC1/Desktop/blockchain_projects/crowdfy/contracts/Crowdfy.sol",
  "compiler": {
    "name": "solc",
    "version": "0.8.0+commit.c7dfd78e.Emscripten.clang"
  },
  "schemaVersion": "3.3.4",
  "updatedAt": "2021-09-05T10:10:30.639Z",
  "devdoc": {
    "kind": "dev",
    "methods": {
      "claimFounds()": {
        "details": "this follows the withdraw pattern to prevent reentrancy"
      },
      "initializeCampaign(string,uint256,uint256,uint256,address,address,address)": {
        "details": "use CREATE in the factory contract  REQUIREMENTS: due date must be major than the current block time campaign cannot be initialized from iniside or cannot be initialized more than once a particular campaign"
      },
      "withdraw()": {
        "details": "first stores the amount that the beneficiary is able to withdraw: amountToWithdraw(the amount that the campaign has been collected)  -  withdrawn(the amount that the beneficiary has withdrawing. starts at 0) this is store in \"toWithdraw\" second, add that amount \"toWithdraw\" the the quantity that the beneficiary has already withdrawing \"withdrawn\" third, substaract the amount that the beneficiary has withdrawn to the amount that the bneficiary is able to withdraw"
      }
    },
    "title": "crowdfy crowdfunding contract",
    "version": 1
  },
  "userdoc": {
    "kind": "user",
    "methods": {
      "claimFounds()": {
        "notice": "claim a refund if the campaign was failed and only if you are a contributor"
      },
      "contribute()": {
        "notice": "allows users to contribute to the campaign, as the campaign is in the onoging state."
      },
      "initializeCampaign(string,uint256,uint256,uint256,address,address,address)": {
        "notice": "creates a new instance campaign"
      },
      "withdraw()": {
        "notice": "allows beneficiary to withdraw the founds of the campaign if this was succeded"
      }
    },
    "version": 1
  }
}